:100000000C9463000C948B000C948B000C948B006C
:100010000C948B000C948B000C948B000C9460045B
:100020000C948B000C948B000C948B000C948B0024
:100030000C948B000C948B000C948B000C948B0014
:100040000C94BE030C948B000C942E040C940804A6
:100050000C948B000C948B000C948B000C948B00F4
:100060000C948B000C948B000000000024002700EF
:100070002A0000000000250028002B0000000000DE
:1000800023002600290004040404040404040202DA
:100090000202020203030303030301020408102007
:1000A0004080010204081020010204081020000012
:1000B0000008000201000003040700000000000027
:1000C00000001E052D0611241FBECFEFD8E0DEBFB5
:1000D000CDBF11E0A0E0B1E0E6EEFEE002C0059089
:1000E0000D92AA38B107D9F723E0AAE8B1E001C020
:1000F0001D92AB30B207E1F710E0C2E6D0E004C0D9
:100100002197FE010E942E06C136D107C9F70E9431
:100110005E050C9466070C940000089508958330E2
:1001200081F028F4813099F08230A1F00895873071
:10013000A9F08830B9F08430D1F4809180008F7DAF
:1001400003C0809180008F7780938000089584B5EC
:100150008F7702C084B58F7D84BD08958091B000F3
:100160008F7703C08091B0008F7D8093B000089599
:10017000CF93DF93282F30E0F901E255FF4F8491B0
:10018000F901E656FF4FD491F901EA57FF4FC491A8
:10019000CC2391F081110E948F00EC2FF0E0EE0F44
:1001A000FF1FE458FF4FA591B491EC91ED2381E03E
:1001B00090E021F480E002C080E090E0DF91CF91F8
:1001C00008951F93CF93DF93282F30E0F901E25574
:1001D000FF4F8491F901E656FF4FD491F901EA5798
:1001E000FF4FC491CC23C9F0162F81110E948F00BC
:1001F000EC2FF0E0EE0FFF1FEE58FF4FA591B491EA
:100200008FB7F894111105C09C91ED2FE095E9236B
:1002100002C0EC91ED2BEC938FBFDF91CF911F913A
:100220000895CF93DF9390E0FC01E656FF4F2491B1
:10023000FC01EA57FF4F8491882361F190E0880F19
:10024000991FFC01E859FF4FC591D491FC01EE586C
:10025000FF4FA591B491611109C09FB7F8948881AF
:10026000209582238883EC912E230BC0623061F4A9
:100270009FB7F8943881822F809583238883EC91EF
:100280002E2B2C939FBF06C08FB7F894E8812E2B9E
:1002900028838FBFDF91CF9108958230910538F088
:1002A000880F991F880F991F05970197F1F70895F7
:1002B000E0EBF0E020812F7D20830C944D013FB7CF
:1002C000F8948091910190919201A0919301B09145
:1002D000940126B5A89B05C02F3F19F00196A11DDA
:1002E000B11D3FBFBA2FA92F982F8827820F911DCC
:1002F000A11DB11DBC01CD0142E0660F771F881F13
:10030000991F4A95D1F708958F929F92AF92BF920D
:10031000CF92DF92EF92FF926B017C010E945F010E
:100320004B015C01C114D104E104F104F1F00E941D
:100330005F01DC01CB0188199909AA09BB09883E34
:100340009340A105B10570F321E0C21AD108E1087C
:10035000F10888EE880E83E0981EA11CB11CC11420
:10036000D104E104F10419F7DDCFFF90EF90DF90A5
:10037000CF90BF90AF909F908F9008950F931F9351
:10038000CF93C82F8B010E94B800892BB1F464E190
:1003900070E080E090E00E948401F80109958C2FC4
:1003A0000E94B800892BD9F364E170E080E090E00E
:1003B000CF911F910F910C948401CF911F910F91B8
:1003C0000895CF92DF92EF92FF920F931F93CF93F6
:1003D000DF936C017A018B01C0E0D0E0CE15DF0520
:1003E00089F0D8016D918D01D601ED91FC910190BC
:1003F000F081E02DC6010995892B11F47E0102C020
:100400002196ECCFC701DF91CF911F910F91FF9003
:10041000EF90DF90CF900895FC01918D828D981719
:1004200061F0828DDF01A80FB11D5D968C91928DD8
:100430009F5F9F73928F90E008958FEF9FEF0895D5
:10044000FC01918D828D981731F0828DE80FF11D9E
:10045000858D90E008958FEF9FEF0895FC01918DB9
:10046000228D892F90E0805C9F4F821B91098F73B2
:100470009927089585E991E00E942E0221E0892BB9
:1004800009F420E0822F0895FC01848DDF01A80F7C
:10049000B11DA35ABF4F2C91848D90E001968F73AC
:1004A0009927848FA689B7892C93A089B1898C91CB
:1004B00080648C93938D848D981306C00288F38991
:1004C000E02D80818F7D80830895EF92FF920F93BE
:1004D0001F93CF93DF93EC0181E0888F9B8D8C8DF0
:1004E000981305C0E889F989808185FD24C0F62E1E
:1004F0000B8D10E00F5F1F4F0F731127E02E8C8DB7
:10050000E8120CC00FB607FCFACFE889F9898081A0
:1005100085FFF5CFCE010E944402F1CF8B8DFE0105
:10052000E80FF11DE35AFF4FF0820B8FEA89FB8938
:100530008081806207C0EE89FF896083E889F9893C
:1005400080818064808381E090E0DF91CF911F9172
:100550000F91FF90EF900895CF93DF93EC01888D7A
:100560008823C9F0EA89FB89808185FD05C0A889B7
:10057000B9898C9186FD0FC00FB607FCF5CF80813D
:1005800085FFF2CFA889B9898C9185FFEDCFCE0187
:100590000E944402E7CFDF91CF91089580E090E080
:1005A000892B29F00E943A0281110C9400000895D1
:1005B00080918A0190918B011816190634F480916C
:1005C0008A0190918B01019702C080E090E09093A6
:1005D0008B0180938A01089580918A0190918B010B
:1005E000019690938B0180938A010895CF93DF93B6
:1005F000009779F0FC0101900020E9F73197AF01F5
:10060000481B590BBC0185E991E00E94E101EC0116
:1006100002C0C0E0D0E042E050E066E271E085E96F
:1006200091E00E94E1018C0F9D1FDF91CF91089511
:10063000CF92DF92EF92FF92CF93DF9310927000F0
:1006400061E0809103030E94110160E08091030347
:100650000E94E10081E08093B00089E08093B100C6
:100660008EED8093B3008AE48093B4008091B00053
:1006700080628093B00089E793E00E944D0189E792
:1006800093E00E9458018091B00080628093B00096
:1006900089E793E00E944D0189E793E00E945801A9
:1006A000CBE0D0E097E0C92ED12CE12CF12CD2FE8A
:1006B0000EC089E793E00E9458018091B0008062EB
:1006C0008093B00089E793E00E944D010DC08091B6
:1006D000B00080628093B00089E793E00E944D01F2
:1006E00089E793E00E945801CC0CDD1CEE1CFF1C36
:1006F0002197E9F680E090E00E94580189E291E0BC
:100700000E94F602C0E0D0E080918A0190918B01B6
:10071000C817D90714F568EC70E080E090E00E94FB
:1007200084018DE00E94B80061E0892B09F060E04F
:100730008DE00E94E10068EC70E080E090E00E94B3
:1007400084018DE00E94B80061E0892B09F060E02F
:100750008DE00E94E1002196D7CF10928B0110927C
:100760008A01DF91CF91FF90EF90DF90CF900895B5
:100770000E9461070C94C9060C94C9061F920F923F
:100780000FB60F9211242F933F938F939F93AF93A4
:10079000BF9380918D0190918E01A0918F01B091B6
:1007A000900130918C0123E0230F2D3720F4019626
:1007B000A11DB11D05C026E8230F0296A11DB11D84
:1007C00020938C0180938D0190938E01A0938F01D3
:1007D000B09390018091910190919201A091930129
:1007E000B09194010196A11DB11D80939101909348
:1007F0009201A0939301B0939401BF91AF919F9107
:100800008F913F912F910F900FBE0F901F901895D1
:100810001F920F920FB60F9211242F933F934F9375
:100820005F936F937F938F939F93AF93BF93EF9358
:10083000FF9385E991E00E944402FF91EF91BF91FF
:10084000AF919F918F917F916F915F914F913F9168
:100850002F910F900FBE0F901F9018951F920F921F
:100860000FB60F9211242F938F939F93EF93FF93C3
:10087000E091A501F091A6018081E091AB01F0919A
:10088000AC0182FD12C090818091AE018F5F8F73A9
:100890002091AF01821751F0E091AE01F0E0EB56EC
:1008A000FE4F958F8093AE0101C08081FF91EF9143
:1008B0009F918F912F910F900FBE0F901F901895C1
:1008C0001F920F920FB60F9211242F933F934F93C5
:1008D0005F936F937F938F939F93AF93BF93EF93A8
:1008E000FF93809132020E94B800409135025091EE
:1008F00036024F5F5F4F509336024093350220918E
:10090000FF02309100032436310530F063E070E0DF
:100910007093340260933302609133027091340219
:100920006130710549F11CF4672B49F076C06230E3
:100930007105E9F16330710509F465C06EC081117C
:100940006CC04436510508F464C081E090E0909397
:1009500000038093FF0250933802409337021092B5
:10096000360210923502909334028093330284E56C
:1009700091E00E94F60251C0813009F04EC02F5F15
:100980003F4F309300032093FF02220F331FF901E2
:10099000EE5CFD4F5683458383E691E00E94F602AC
:1009A000109236021092350282E090E019C0811157
:1009B0001CC02F5F3F4F309300032093FF02220F94
:1009C000331FF901EE5CFD4F5683458384E591E0CA
:1009D0000E94F602109236021092350281E090E0F9
:1009E000909334028093330218C08130B1F44536BD
:1009F000510598F084E891E00E94F60210923402CA
:100A0000109233020AC0811108C082E791E00E946F
:100A1000F6021092360210923502FF91EF91BF91CB
:100A2000AF919F918F917F916F915F914F913F9186
:100A30002F910F900FBE0F901F901895E5E9F1E0F0
:100A40001382128288EE93E0A0E0B0E08483958365
:100A5000A683B7838AE091E09183808385EC90E060
:100A60009587848784EC90E09787868780EC90E078
:100A7000918B808B81EC90E0938B828B82EC90E069
:100A8000958B848B86EC90E0978B868B118E128EE3
:100A9000138E148E82E291E09093060380930503F7
:100AA00087E080933202E1E0F3E08AE191E0918314
:100AB000808383E090E0938382830895789484B563
:100AC000826084BD84B5816084BD85B5826085BD4A
:100AD00085B5816085BD80916E00816080936E00D8
:100AE00010928100809181008260809381008091CA
:100AF000810081608093810080918000816080937B
:100B000080008091B10084608093B1008091B0003A
:100B100081608093B00080917A00846080937A0035
:100B200080917A00826080937A0080917A0081605F
:100B300080937A0080917A00806880937A00109286
:100B4000C100E091A501F091A601C2E0C083E0914F
:100B5000A101F091A2011082E091A301F091A40102
:100B60008FEC80831092AD01E091A901F091AA0170
:100B700086E08083E091A701F091A80180818061E7
:100B80008083E091A701F091A80180818860808333
:100B9000E091A701F091A801808180688083E091B5
:100BA000A701F091A80180818F7D808362E084E0BD
:100BB0000E94110162E088E00E94110162E089E078
:100BC0000E94110161E08DE00E941101F894C09330
:100BD000B000C093B10084E68093B3001092B200DD
:100BE000C0937000789410923402109233021092E5
:100BF00000031092FF0260E0809132020E94110116
:100C000068ED72E089E090E00E94BE016CEE72E057
:100C100088E090E00E94BE0168E173E084E090E02B
:100C20000E94BE018091330290913402039791F4A7
:100C30008091FF02909100030E9760F085E391E0B0
:100C40000E94F602109234021092330210920003B6
:100C50001092FF020E94CE02D3CF0895EE0FFF1F25
:100C60000590F491E02D0994CF93DF9382309105A4
:100C700010F482E090E0E0910903F0910A0320E093
:100C800030E0C0E0D0E0309711F140815181481749
:100C90005907C0F04817590761F482819381209762
:100CA00019F09B838A832BC090930A0380930903D6
:100CB00026C02115310519F04217530718F49A017F
:100CC000BE01DF01EF010280F381E02DDCCF2115B1
:100CD000310509F1281B390B2430310590F41296A7
:100CE0008D919C9113976115710521F0FB01938300
:100CF000828304C090930A0380930903FD01329616
:100D000044C0FD01E20FF31F8193919322503109FA
:100D10002D933C933AC02091070330910803232B75
:100D200041F4209102013091030130930803209394
:100D3000070320910001309101012115310541F493
:100D40002DB73EB74091040150910501241B350B8E
:100D5000E0910703F0910803E217F307A0F42E1BBC
:100D60003F0B2817390778F0AC014E5F5F4F24170F
:100D7000350748F04E0F5F1F509308034093070359
:100D80008193919302C0E0E0F0E0CF01DF91CF9139
:100D900008950F931F93CF93DF93009709F48CC0AE
:100DA000FC013297138212820091090310910A0309
:100DB0000115110581F420813181820F931F20914B
:100DC0000703309108032817390779F5F0930803D2
:100DD000E093070371C0D80140E050E0AE17BF07B1
:100DE00050F412962D913C911397AD0121153105C8
:100DF00009F1D901F3CF9D01DA01338322836081A8
:100E00007181860F971F8217930769F4EC0128817F
:100E10003981260F371F2E5F3F4F318320838A8110
:100E20009B8193838283452B29F4F0930A03E093FB
:100E3000090342C01396FC93EE931297ED0149917A
:100E400059919E01240F351FE217F30771F4808139
:100E50009181840F951F029611969C938E938281A7
:100E6000938113969C938E931297E0E0F0E0D80163
:100E700012968D919C911397009719F0F8018C01AF
:100E8000F6CF8D919C9198012E5F3F4F820F931F5B
:100E900020910703309108032817390769F4309728
:100EA00029F410920A031092090302C013821282DD
:100EB0001093080300930703DF91CF911F910F91C7
:100EC000089581E090E0F8940C94660710E0C2E683
:100ED000D0E004C0FE010E942E062196C336D10741
:060EE000C9F7F894FFCFF2
:100EE60000000B038000000000006502E1012E02F5
:100EF6000C022002AC02000000008E00BC030000C1
:100F060000008D00BA030D0A005369676E616C20FC
:100F160073656E74004269747320636F6C6C6563ED
:100F26007465642C207374617274206465636F64E5
:100F3600696E6700526563656976656420737061E2
:100F460063650052656365697665642070756C73C8
:100F5600650052656365697665642070756C7365B6
:0A0F6600202D3E2053746F70000030
:00000001FF
