:100000000C9463000C948B000C948B000C948B006C
:100010000C948B000C948B000C948B000C94440477
:100020000C948B000C948B000C948B000C948B0024
:100030000C948B000C948B000C948B000C948B0014
:100040000C94A2030C948B000C9412040C94EC03FB
:100050000C948B000C948B000C948B000C948B00F4
:100060000C948B000C948B000000000024002700EF
:100070002A000000000023002600290000000000E4
:10008000250028002B0004040404040404040202D4
:100090000202020203030303030301020408102007
:1000A0004080010204081020010204081020000012
:1000B0000008000201000003040700000000000027
:1000C0000000E404BC0511241FBECFEFD8E0DEBF62
:1000D000CDBF11E0A0E0B1E0EAEDFEE002C0059086
:1000E0000D92A036B107D9F723E0A0E6B1E001C038
:1000F0001D92AA3AB207E1F710E0C2E6D0E004C0D0
:100100002197FE010E941906C136D107C9F70E9446
:1001100023050C9460070C940000833081F028F4D0
:10012000813099F08230A1F008958730A9F08830AD
:10013000B9F08430D1F4809180008F7D03C080912C
:1001400080008F7780938000089584B58F7702C0F8
:1001500084B58F7D84BD08958091B0008F7703C0F2
:100160008091B0008F7D8093B0000895CF93DF938E
:10017000282F30E0F901E255FF4F8491F901E6564E
:10018000FF4FD491F901EA57FF4FC491CC2391F06E
:1001900081110E948D00EC2FF0E0EE0FFF1FEE5852
:1001A000FF4FA591B491EC91ED2381E090E021F413
:1001B00080E002C080E090E0DF91CF910895CF937E
:1001C000DF9390E0FC01E656FF4F2491FC01EA57D3
:1001D000FF4F8491882361F190E0880F991FFC0103
:1001E000E859FF4FC591D491FC01E458FF4FA59108
:1001F000B491611109C09FB7F8948881209582233A
:100200008883EC912E230BC0623061F49FB7F89481
:100210003881822F809583238883EC912E2B2C9319
:100220009FBF06C08FB7F894E8812E2B28838FBF1D
:10023000DF91CF9108958230910538F0880F991F92
:10024000880F991F05970197F1F70895CF93DF93D2
:10025000C0EBD0E088818062888389E793E00E94C8
:100260001B0188818F7D888389E793E0DF91CF919F
:100270000C941B01CF93DF93C0EBD0E088818F7D7E
:10028000888389E793E00E941B01888180628883CC
:1002900089E793E0DF91CF910C941B013FB7F8946D
:1002A0008091FC029091FD02A091FE02B091FF02AC
:1002B00026B5A89B05C02F3F19F00196A11DB11DC1
:1002C0003FBFBA2FA92F982F8827820F911DA11DFC
:1002D000B11DBC01CD0142E0660F771F881F991F39
:1002E0004A95D1F708958F929F92AF92BF92CF9285
:1002F000DF92EF92FF921F93CF93DF93182FEB01C2
:100300000E944E014B015C0184E1C82ED12CE12CEE
:10031000F12C0E944E01DC01CB0188199909AA0930
:10032000BB09883E9340A105B10558F021E0C21AEF
:10033000D108E108F10888EE880E83E0981EA11C20
:10034000B11CC114D104E104F10419F7812F0E94FA
:10035000B600892B39F4FE010995812F0E94B60061
:10036000892BD9F3DF91CF911F91FF90EF90DF9010
:10037000CF90BF90AF909F908F900895CF92DF92D3
:10038000EF92FF920F931F93CF93DF936C017A014B
:100390008B01C0E0D0E0CE15DF0589F0D8016D916A
:1003A0008D01D601ED91FC910190F081E02DC60107
:1003B0000995892B11F47E0102C02196ECCFC7016B
:1003C000DF91CF911F910F91FF90EF90DF90CF9031
:1003D0000895FC01918D828D981761F0828DDF0167
:1003E000A80FB11D5D968C91928D9F5F9F73928F28
:1003F00090E008958FEF9FEF0895FC01918D828D1D
:10040000981731F0828DE80FF11D858D90E00895E9
:100410008FEF9FEF0895FC01918D228D892F90E041
:10042000805C9F4F821B91098F739927089580E00C
:1004300093E00E940B0221E0892B09F420E0822F37
:100440000895FC01848DDF01A80FB11DA35ABF4F91
:100450002C91848D90E001968F739927848FA689C3
:10046000B7892C93A089B1898C9180648C93938DEA
:10047000848D981306C00288F389E02D80818F7DDA
:1004800080830895EF92FF920F931F93CF93DF9392
:10049000EC0181E0888F9B8D8C8D981305C0E889D5
:1004A000F989808185FD24C0F62E0B8D10E00F5F49
:1004B0001F4F0F731127E02E8C8DE8120CC00FB662
:1004C00007FCFACFE889F989808185FFF5CFCE0155
:1004D0000E942102F1CF8B8DFE01E80FF11DE35A3E
:1004E000FF4FF0820B8FEA89FB898081806207C011
:1004F000EE89FF896083E889F9898081806480833F
:1005000081E090E0DF91CF911F910F91FF90EF90EC
:100510000895CF93DF93EC01888D8823C9F0EA8991
:10052000FB89808185FD05C0A889B9898C9186FDEC
:100530000FC00FB607FCF5CF808185FFF2CFA889E9
:10054000B9898C9185FFEDCFCE010E942102E7CFC2
:10055000DF91CF91089580E090E0892B29F00E94EF
:10056000170281110C94000008950895A5EFB2E0E0
:100570008D919C911197FC01EE0FFF1FEE0FFF1F55
:10058000E05AFE4F158216821782108601968D93CF
:100590009C9310926401109263010895CF93DF93AE
:1005A000009779F0FC0101900020E9F73197AF0145
:1005B000481B590BBC0180E093E00E94BE01EC0196
:1005C00002C0C0E0D0E042E050E06EE171E080E0C7
:1005D00093E00E94BE018C0F9D1FDF91CF91089583
:1005E000CF92DF92EF92FF92CF93DF936B017C016A
:1005F00061E080919F030E94DF0020919F03309172
:10060000A0033327F901E255FF4F8491F901E65623
:10061000FF4FD491F901EA57FF4FC491CC2399F0D1
:1006200081110E948D00EC2FF0E0EE0FFF1FE458C7
:10063000FF4FA591B4918FB7F8949C91ED2FE09561
:10064000E923EC938FBF1092B0001092B10010928A
:1006500070008091B00081608093B0008091B10003
:1006600088608093B1008091B10081608093B10077
:100670008EED8093B3008FE68093B4000E943A0120
:100680000E943A018091A1039091A203A091A3033B
:10069000B091A4038C159D05AE05BF0531F0909176
:1006A000A50381E089278093A5038091A503882372
:1006B00029F00E942601CBE0D0E003C00E943A015D
:1006C000FACFD2FE03C00E943A0102C00E94260166
:1006D000CC0CDD1CEE1CFF1C219799F78091B0001B
:1006E0008F7D8093B00080E090E00E941B0181E24A
:1006F00091E0DF91CF91FF90EF90DF90CF900C943D
:10070000CE028DE291E00E94CE0260E270E080E0D5
:1007100090E00C94F0028DE391E00E94CE0261E043
:1007200070E080E090E00C94F0028EE491E00E9492
:10073000CE0260E070E0CB010C94F0020E945B07F7
:100740000C94C3061F920F920FB60F9211242F9391
:100750003F938F939F93AF93BF938091F8029091B3
:10076000F902A091FA02B091FB023091F70223E066
:10077000230F2D3720F40196A11DB11D05C026E8D9
:10078000230F0296A11DB11D2093F7028093F8025A
:100790009093F902A093FA02B093FB028091FC02BD
:1007A0009091FD02A091FE02B091FF020196A11D61
:1007B000B11D8093FC029093FD02A093FE02B093C2
:1007C000FF02BF91AF919F918F913F912F910F9019
:1007D0000FBE0F901F9018951F920F920FB60F9299
:1007E00011242F933F934F935F936F937F938F9336
:1007F0009F93AF93BF93EF93FF9380E093E00E94AA
:100800002102FF91EF91BF91AF919F918F917F91C5
:100810006F915F914F913F912F910F900FBE0F906D
:100820001F9018951F920F920FB60F9211242F93BD
:100830008F939F93EF93FF93E0911003F091110337
:100840008081E0911603F091170382FD12C0908120
:10085000809119038F5F8F7320911A03821751F0D3
:10086000E0911903F0E0E050FD4F958F809319035C
:1008700001C08081FF91EF919F918F912F910F90F7
:100880000FBE0F901F9018951F920F920FB60F92E8
:100890001124CF92DF92EF92FF922F933F934F93C9
:1008A0005F936F937F938F939F93AF93BF93CF93F8
:1008B000DF93EF93FF93809160010E94B600C09098
:1008C0006301D09064012FEFC21AD20AD092640162
:1008D000C09263012091F5023091F6022436310571
:1008E00058F083E090E09093620180936101109250
:1008F00064011092630151C0EC01DD278091610118
:10090000909162010097E9F4E12CF12C60EA7CE817
:1009100080E090E020E030E0A9010E94CD0560E495
:1009200072E48FE090E00E94BD05C616D706E80687
:10093000F9069CF1CD2B89F50E94B60281E090E08A
:1009400028C08130910539F4219739F50E94B6020B
:1009500082E090E01EC0029701F5CD2B69F3E12CF7
:10096000F12C60EA7CE880E090E020E030E0A90132
:100970000E94CD0560E472E48FE090E00E94BD0526
:100980006C157D058E059F0544F40E94B60283E038
:1009900090E09093620180936101FF91EF91DF916C
:1009A000CF91BF91AF919F918F917F916F915F9107
:1009B0004F913F912F91FF90EF90DF90CF900F904C
:1009C0000FBE0F901F901895E0E0F3E013821282A3
:1009D00088EE93E0A0E0B0E084839583A683B7839C
:1009E0008AE091E09183808385EC90E0958784870D
:1009F00084EC90E09787868780EC90E0918B808BE9
:100A000081EC90E0938B828B82EC90E0958B848BD1
:100A100086EC90E0978B868B118E128E138E148E3F
:100A2000EDE9F3E08AE191E09183808383E090E057
:100A30009383828310868FEF9FEFDC0184839583FD
:100A4000A683B7830895789484B5826084BD84B505
:100A5000816084BD85B5826085BD85B5816085BDB9
:100A600080916E00816080936E0010928100809171
:100A700081008260809381008091810081608093F9
:100A80008100809180008160809380008091B1001E
:100A900084608093B1008091B00081608093B00049
:100AA00080917A00846080937A0080917A008260DD
:100AB00080937A0080917A00816080937A0080919F
:100AC0007A00806880937A001092C100E091100350
:100AD000F091110382E08083E0910C03F0910D030B
:100AE0001082E0910E03F0910F038FEC808310923F
:100AF0001803E0911403F091150386E08083E091E0
:100B00001203F0911303808180618083E0911203CE
:100B1000F0911303808188608083E0911203F0914B
:100B20001303808180688083E0911203F0911303A6
:100B300080818F7D808362E088E00E94DF0062E038
:100B400089E00E94DF0062E08AE00E94DF0065E940
:100B500073E08AE090E00E9473016BE873E089E043
:100B600090E00E94730161E873E088E090E00E94E9
:100B700073010E94AB02EBCF0895DB018F939F932B
:100B80000E94EC05BF91AF91A29F800D911DA39F84
:100B9000900DB29F900D11240895052E97FB1EF421
:100BA00000940E94E40557FD07D00E94F70507FC5A
:100BB00003D04EF40C94E405509540953095219562
:100BC0003F4F4F4F5F4F0895909580957095619579
:100BD0007F4F8F4F9F4F08950E941F06A59F900D36
:100BE000B49F900DA49F800D911D11240895A1E242
:100BF0001A2EAA1BBB1BFD010DC0AA1FBB1FEE1F97
:100C0000FF1FA217B307E407F50720F0A21BB30BE1
:100C1000E40BF50B661F771F881F991F1A9469F75D
:100C200060957095809590959B01AC01BD01CF01B9
:100C30000895EE0FFF1F0590F491E02D0994A29FF7
:100C4000B001B39FC001A39F700D811D1124911DA0
:100C5000B29F700D811D1124911D0895CF93DF93D4
:100C60008230910510F482E090E0E091A803F091C9
:100C7000A90320E030E0C0E0D0E0309711F14081DE
:100C8000518148175907C0F04817590761F482810C
:100C90009381209719F09B838A832BC09093A9039B
:100CA0008093A80326C02115310519F04217530778
:100CB00018F49A01BE01DF01EF010280F381E02DFB
:100CC000DCCF2115310509F1281B390B2430310502
:100CD00090F412968D919C9113976115710521F0F6
:100CE000FB019383828304C09093A9038093A8039C
:100CF000FD01329644C0FD01E20FF31F81939193F1
:100D0000225031092D933C933AC02091A603309193
:100D1000A703232B41F4209102013091030130936A
:100D2000A7032093A6032091000130910101211512
:100D3000310541F42DB73EB74091040150910501B2
:100D4000241B350BE091A603F091A703E217F307EC
:100D5000A0F42E1B3F0B2817390778F0AC014E5F2B
:100D60005F4F2417350748F04E0F5F1F5093A703BE
:100D70004093A6038193919302C0E0E0F0E0CF019D
:100D8000DF91CF9108950F931F93CF93DF93009737
:100D900009F48CC0FC013297138212820091A803DF
:100DA0001091A9030115110581F420813181820F71
:100DB000931F2091A6033091A7032817390779F5CF
:100DC000F093A703E093A60371C0D80140E050E080
:100DD000AE17BF0750F412962D913C911397AD01B9
:100DE0002115310509F1D901F3CF9D01DA013383D2
:100DF000228360817181860F971F8217930769F4A0
:100E0000EC0128813981260F371F2E5F3F4F318338
:100E100020838A819B8193838283452B29F4F093DD
:100E2000A903E093A80342C01396FC93EE93129794
:100E3000ED01499159919E01240F351FE217F307E7
:100E400071F480819181840F951F029611969C9375
:100E50008E938281938113969C938E931297E0E0F8
:100E6000F0E0D80112968D919C911397009719F09C
:100E7000F8018C01F6CF8D919C9198012E5F3F4F28
:100E8000820F931F2091A6033091A70328173907DB
:100E900069F4309729F41092A9031092A80302C0B4
:100EA000138212821093A7030093A603DF91CF91C0
:100EB0001F910F91089581E090E0F8940C946007E1
:100EC00010E0C2E6D0E004C0FE010E94190621969F
:0A0ED000C336D107C9F7F894FFCF2D
:100EDA000000AA038000000000004202BE010B02CB
:100EEA00E901FD01890200000000B502A0030D0A14
:100EFA00005369676E616C2073656E740053656E8A
:100F0A0064696E6720436F6E6669726D0053656E21
:100F1A0064696E6720496E63726561736500536523
:100F2A006E64696E6720446563726561736500006B
:00000001FF
