:100000000C9463000C948B000C948B000C948B006C
:100010000C948B000C948B000C948B000C9480033C
:100020000C948B000C948B000C948B000C948B0024
:100030000C948B000C948B000C948B000C948B0014
:100040000C94DE020C948B000C944E030C94280349
:100050000C948B000C948B000C948B000C948B00F4
:100060000C948B000C948B000000000023002600F1
:10007000290000000000240027002A0000000000E2
:10008000250028002B0004040404040404040202D4
:100090000202020203030303030301020408102007
:1000A0004080010204081020010204081020000012
:1000B0000008000201000003040700000000000027
:1000C00000001404DA0611241FBECFEFD8E0DEBF13
:1000D000CDBF11E0A0E0B1E0E4E8F0E102C005909E
:1000E0000D92AC36B107D9F723E0ACE6B1E001C020
:1000F0001D92A13BB207E1F710E0C2E6D0E004C0D8
:100100002197FE010E94FD06C136D107C9F70E9462
:100110004A040C9435080C940000833081F028F4D4
:10012000813099F08230A1F008958730A9F08830AD
:10013000B9F08430D1F4809180008F7D03C080912C
:1001400080008F7780938000089584B58F7702C0F8
:1001500084B58F7D84BD08958091B0008F7703C0F2
:100160008091B0008F7D8093B00008951F93CF934E
:10017000DF93EBEBF0E09491E7EAF0E0D491E3E970
:10018000F0E0C491CC23D9F0182F992319F0892FCE
:100190000E948D00EC2FF0E0EE0FFF1FE458FF4FA0
:1001A000A591B4918FB7F894111105C09C91ED2FD2
:1001B000E095E92302C0EC91ED2BEC938FBFDF912A
:1001C000CF911F9108953FB7F8948091730190915A
:1001D0007401A0917501B091760126B5A89B05C068
:1001E0002F3F19F00196A11DB11D3FBFBA2FA92FB6
:1001F000982F8827820F911DA11DB11DBC01CD0133
:1002000042E0660F771F881F991F4A95D1F708951E
:100210008F929F92AF92BF92CF92DF92EF92FF9216
:100220000E94E3004B015C0188ECC82ED12CE12C2C
:10023000F12C0E94E300DC01CB0188199909AA097D
:10024000BB09883E9340A105B10558F021E0C21AD0
:10025000D108E108F10888EE880E83E0981EA11C01
:10026000B11CC114D104E104F10419F7FF90EF901F
:10027000DF90CF90BF90AF909F908F900895CF92D6
:10028000DF92EF92FF920F931F93CF93DF936C0156
:100290007A018B01C0E0D0E0CE15DF0589F0D801EE
:1002A0006D918D01D601ED91FC910190F081E02DD1
:1002B000C6010995892B11F47E0102C02196ECCF6D
:1002C000C701DF91CF911F910F91FF90EF90DF90C9
:1002D000CF900895FC01918D828D981761F0828DE9
:1002E000DF01A80FB11D5D968C91928D9F5F9F736A
:1002F000928F90E008958FEF9FEF0895FC01918D0C
:10030000828D981731F0828DE80FF11D858D90E078
:1003100008958FEF9FEF0895FC01918D228D892F15
:1003200090E0805C9F4F821B91098F7399270895FD
:1003300087E791E00E948C0121E0892B09F420E0FD
:10034000822F0895FC01848DDF01A80FB11DA35AEF
:10035000BF4F2C91848D90E001968F739927848FE5
:10036000A689B7892C93A089B1898C9180648C93DC
:10037000938D848D981306C00288F389E02D8081C7
:100380008F7D80830895EF92FF920F931F93CF93F9
:10039000DF93EC0181E0888F9B8D8C8D981305C0D5
:1003A000E889F989808185FD24C0F62E0B8D10E047
:1003B0000F5F1F4F0F731127E02E8C8DE8120CC0BA
:1003C0000FB607FCFACFE889F989808185FFF5CF60
:1003D000CE010E94A201F1CF8B8DFE01E80FF11D2D
:1003E000E35AFF4FF0820B8FEA89FB89808180629C
:1003F00007C0EE89FF896083E889F989808180647C
:10040000808381E090E0DF91CF911F910F91FF9069
:10041000EF900895CF93DF93EC01888D8823C9F086
:10042000EA89FB89808185FD05C0A889B9898C91FD
:1004300086FD0FC00FB607FCF5CF808185FFF2CF98
:10044000A889B9898C9185FFEDCFCE010E94A201C8
:10045000E7CFDF91CF91089580E090E0892B29F0DC
:100460000E94980181110C9400000895CF93DF93AE
:10047000A4E1B2E0C9EAD3E088819981FC01EE0FE2
:10048000FF1FEE0FFF1FEC5EFD4F13962D913C9169
:10049000149762E3629FA001639F500D112460E0F6
:1004A00070E04583568367837087019699838883BC
:1004B00014961C921E921397DF91CF910895089580
:1004C000009769F0FC0101900020E9F73197AF0136
:1004D000481B590BBC0187E791E00C943F0180E079
:1004E00090E008958F929F92AF92BF920F931F93C7
:1004F000CF93DF93CDB7DEB7A1970FB6F894DEBFE9
:100500000FBECDBF19A2423008F44AE08E010F5D44
:100510001F4F842E912CA12CB12CA50194010E9477
:10052000DB06E62FB901CA0101501109EA3014F4C3
:10053000E05D01C0E95CD801EC93232B242B252B33
:1005400061F7C8010E946002A1960FB6F894DEBF61
:100550000FBECDBFDF91CF911F910F91BF90AF9094
:100560009F908F900895CF92DF92EF92FF92CF935A
:10057000DF936B017C01E0917701F09178010190AC
:10058000F081E02D6DE287E791E00995EC016627A7
:100590007727CB016C197D098E099F094AE00E94DB
:1005A00072028C0F9D1FDF91CF91FF90EF90DF9033
:1005B000CF9008950E9430080C9498071F920F92D4
:1005C0000FB60F9211242F933F938F939F93AF9366
:1005D000BF9380916F0190917001A0917101B091D2
:1005E000720130916E0123E0230F2D3720F4019624
:1005F000A11DB11D05C026E8230F0296A11DB11D46
:1006000020936E0180936F0190937001A09371010C
:10061000B09372018091730190917401A091750162
:10062000B09176010196A11DB11D80937301909345
:100630007401A0937501B0937601BF91AF919F9122
:100640008F913F912F910F900FBE0F901F90189593
:100650001F920F920FB60F9211242F933F934F9337
:100660005F936F937F938F939F93AF93BF93EF931A
:10067000FF9387E791E00E94A201FF91EF91BF9164
:10068000AF919F918F917F916F915F914F913F912A
:100690002F910F900FBE0F901F9018951F920F92E1
:1006A0000FB60F9211242F938F939F93EF93FF9385
:1006B000E0918701F09188018081E0918D01F091B6
:1006C0008E0182FD12C09081809190018F5F8F73A7
:1006D00020919101821751F0E0919001F0E0E958EA
:1006E000FE4F958F8093900101C08081FF91EF9123
:1006F0009F918F912F910F900FBE0F901F90189583
:100700001F920F920FB60F9211242F933F934F9386
:100710005F936F937F938F939F93AF93BF93CF9389
:10072000DF93EF93FF932091140230E0F901E2553B
:10073000FF4F8491F901E656FF4FD491F901EA5732
:10074000FF4FC491CC23A1F081110E948D00EC2FAA
:10075000F0E0EE0FFF1FE859FF4FA591B491EC9127
:10076000ED2331E020E009F430E0832F922F02C026
:1007700080E090E020911702309118022F5F3F4FE8
:1007800030931802209317024091A9035091AA03B5
:100790004436510558F083E090E090931602809320
:1007A000150210921802109217022BC040911502E8
:1007B000509116024115510551F4283E334008F17D
:1007C000892BF9F40E94360281E090E016C0413096
:1007D000510539F40197A9F40E94360282E090E0B5
:1007E0000CC04230510569F4892B61F3293E334036
:1007F00040F00E94360283E090E0909316028093CE
:100800001502FF91EF91DF91CF91BF91AF919F9131
:100810008F917F916F915F914F913F912F910F90A9
:100820000FBE0F901F901895E7E7F1E01382128238
:1008300088EE93E0A0E0B0E084839583A683B7833D
:100840008AE091E09183808385EC90E095878487AE
:1008500084EC90E09787868780EC90E0918B808B8A
:1008600081EC90E0938B828B82EC90E0958B848B73
:1008700086EC90E0978B868B118E128E138E148EE1
:100880008AE191E09093AC038093AB0383E0809383
:1008900014020895CF93DF93CDB7DEB7C455D109C5
:1008A0000FB6F894DEBF0FBECDBF789484B58260DA
:1008B00084BD84B5816084BD85B5826085BD85B504
:1008C000816085BD80916E00816080936E00109282
:1008D00081008091810082608093810080918100FD
:1008E000816080938100809180008160809380008E
:1008F0008091B10084608093B1008091B0008160EC
:100900008093B00080917A00846080937A00809117
:100910007A00826080937A0080917A00816080936F
:100920007A0080917A00806880937A001092C100EA
:10093000E0918701F091880182E08083E09183015A
:10094000F09184011082E0918501F09186018FEC95
:10095000808310928F01E0918B01F0918C0186E0F1
:100960008083E0918901F0918A0180818061808398
:10097000E0918901F0918A01808188608083E09113
:100980008901F0918A01808180688083E0918901EA
:10099000F0918A0180818F7D8083E7EAF0E02491E5
:1009A000E3E9F0E08491882399F090E0880F991FA3
:1009B000FC01EE58FF4FA591B491FC01E458FF4FA4
:1009C000859194918FB7F894EC91E22BEC938FBFC3
:1009D000F8941092B0001092B1008091B000826043
:1009E0008093B0008091B10082608093B10084E672
:1009F0008093B3008091700082608093700078943F
:100A000010921602109215021092180210921702FC
:100A10001092AA031092A9038091140290E0FC01A5
:100A2000E656FF4F2491FC01EA57FF4F849188233B
:100A3000C9F090E0880F991FFC01EE58FF4F4591D7
:100A40005491FC01E458FF4FA591B4919FB7F894DD
:100A5000FA0180812095822380838C91E22FE82304
:100A6000EC939FBF78E0872E912CEDE0AE2EB12C59
:100A70008091150290911602039709F01FC12090F2
:100A8000A9033090AA0381E090E09A8389830DE165
:100A900012E041E050E021E030E06101F1E0CF1AE6
:100AA000D1086CE1E62EF12C4215530508F011C176
:100AB000F9013197EE0FFF1F81E090E08C0F9D1F31
:100AC000E80FF91F61E070E080819181019711F4D6
:100AD00060E070E0D8014D905D906D907D908D014B
:100AE000B9E84B16B7E05B066104710448F04C1599
:100AF0005D0531F482EF482E86E0582E612C712C72
:100B0000D301C201835E9240A109B1098D329140A7
:100B1000A105B10588F0FCE54F1AF6E05F0A61080F
:100B200071088DE2481681E058066104710408F4EA
:100B300011C18CE591E0C7C066246394712CF70164
:100B4000E21BF30BC301E615F70508F4CF0100978C
:100B500009F015C1280F391F2C31310509F0FDC0EE
:100B6000DE01119620E030E0F901F695E7958D91D0
:100B70009C911197019709F0F3C091E080E01296E3
:100B80004D915C911397452B09F090E0EE0FFF1FFC
:100B900041E050E04C0F5D1FE40FF51F90AF81AFB7
:100BA0002E5F3F4F14962C313105F1F689AD9AAD89
:100BB000019709F086C08BAD9CAD019709F081C00B
:100BC00086E090E00E9403078C01DC0113961C92E2
:100BD0001E92129715961C921E9214976DAC7EACC5
:100BE0006D927C92C12CD12CFE01FF9683E090E0A7
:100BF00021913191A401481B590B02C0220F331FD0
:100C00004A95E2F7C22AD32A01968930910581F7E5
:100C1000F801D382C282E480F580FE01E75BFF4FDA
:100C200088E090E021913191A501481B590B02C049
:100C3000220F331F4A95E2F7E22AF32A01968E30FB
:100C4000910581F7D8011596FC92EE92149782E3F4
:100C500091E00E946002B301770C880B990B97FF1B
:100C600082C00E94B30284E491E00E946002B60157
:100C7000DD0C880B990B97FF7AC00E94B30280E5C8
:100C800091E00E946002B701FF0C880B990B97FF5F
:100C900072C00E94B3028FE291E00E946002F801EC
:100CA000109216021092150210921802109217025A
:100CB0001092AA031092A903309771F40E942C029B
:100CC000D7CE8EE191E00E9460028FE291E00E9417
:100CD0006002E0E0F0E0E4CF84819581009751F478
:100CE00020916C0130916D01223031058CF0C901E9
:100CF00001970EC08130910581F480916C01909133
:100D00006D018930910514F4019602C08AE090E0EB
:100D100090936D0180936C01D1CF809779F600E0BC
:100D200010E080916C0190916D01081719076CF427
:100D30000E94080181E00E94B6000E94080180E044
:100D40000E94B6000F5F1F4FECCF10926D01109202
:100D50006C01B4CFB2E06B2EF1CE4F5F5F4FA4CEEB
:100D600090E080E013CF4AE00E9472027CCF4AE01C
:100D70000E94720284CF4AE00E9472028CCF390135
:100D8000BFEF6B1A7B0AF901EE0FFF1FA1E0B0E085
:100D9000AC0FBD1FEA0FFB1F71836083823091058A
:100DA00009F0D8CEF301EE0FFF1FEA0FFB1F71838E
:100DB0006083D0CE0895A1E21A2EAA1BBB1BFD01B1
:100DC0000DC0AA1FBB1FEE1FFF1FA217B307E4072A
:100DD000F50720F0A21BB30BE40BF50B661F771F82
:100DE000881F991F1A9469F7609570958095909562
:100DF0009B01AC01BD01CF010895EE0FFF1F0590CF
:100E0000F491E02D0994CF93DF938230910510F493
:100E100082E090E0E091AF03F091B00320E030E099
:100E2000C0E0D0E0309711F1408151814817590757
:100E3000C0F04817590761F482819381209719F017
:100E40009B838A832BC09093B0038093AF0326C00B
:100E50002115310519F04217530718F49A01BE0104
:100E6000DF01EF010280F381E02DDCCF2115310598
:100E700009F1281B390B2430310590F412968D911D
:100E80009C9113976115710521F0FB019383828377
:100E900004C09093B0038093AF03FD01329644C029
:100EA000FD01E20FF31F81939193225031092D939D
:100EB0003C933AC02091AD033091AE03232B41F413
:100EC00020910201309103013093AE032093AD03D2
:100ED00020910001309101012115310541F42DB718
:100EE0003EB74091040150910501241B350BE09160
:100EF000AD03F091AE03E217F307A0F42E1B3F0BF6
:100F00002817390778F0AC014E5F5F4F241735077B
:100F100048F04E0F5F1F5093AE034093AD03819393
:100F2000919302C0E0E0F0E0CF01DF91CF9108950E
:100F30000F931F93CF93DF93009709F48CC0FC01AC
:100F40003297138212820091AF031091B003011502
:100F5000110581F420813181820F931F2091AD030F
:100F60003091AE032817390779F5F093AE03E0937B
:100F7000AD0371C0D80140E050E0AE17BF0750F498
:100F800012962D913C911397AD012115310509F170
:100F9000D901F3CF9D01DA0133832283608171810E
:100FA000860F971F8217930769F4EC012881398116
:100FB000260F371F2E5F3F4F318320838A819B810D
:100FC00093838283452B29F4F093B003E093AF031E
:100FD00042C01396FC93EE931297ED0149915991FB
:100FE0009E01240F351FE217F30771F48081918170
:100FF000840F951F029611969C938E938281938104
:1010000013969C938E931297E0E0F0E0D80112962D
:101010008D919C911397009719F0F8018C01F6CFF0
:101020008D919C9198012E5F3F4F820F931F2091CD
:10103000AD033091AE032817390769F4309729F4CE
:101040001092B0031092AF0302C013821282109369
:10105000AE030093AD03DF91CF911F910F910895DF
:1010600081E090E0F8940C94350810E0C2E6D0E0FE
:1010700004C0FE010E94FD062196C336D107C9F7C0
:04108000F894FFCF12
:101084000000B103800000000000C3013F018C0197
:101094006A017E010A02000000005F02DC0257724E
:1010A4006F6E672073746172742062697473000DCB
:1010B4000A003C4952436F64653E20746F67676C55
:1010C400653A20002C20616464726573733A2000D1
:1010D4002C20636F6D6D616E643A20004465636F0C
:0C10E40064696E67206661696C656400D9
:00000001FF
